:100000000C9472000C9493000C9493000C94930045
:100010000C9493000C94EF000C94CA000C94930081
:100020000C9493000C9493000C9493000C94930004
:100030000C9493000C9493000C9493000C949300F4
:100040000C9493000C9493000C9493000C949300E4
:100050000C9493000C9493000C9493000C949300D4
:100060000C9493000C9474010C9493000C949300E2
:100070000C9493000C9493000C9493000C949300B4
:100080000C9493000C9493000C9493000C949300A4
:100090000C9493000C9493000C9493000C94930094
:1000A0000C9493000C9493000C9493000C94930084
:1000B0000C9493000C9493000C9493000C94930074
:1000C0000C9493000C9493000C9493000C94930064
:1000D0000C9493000C9493000C9493000C94930054
:1000E0000C94930011241FBECFEFD1E2DEBFCDBF31
:1000F00000E00CBF12E0A0E0B2E0E0E3F5E000E0D9
:100100000BBF02C007900D92A030B107D9F712E0E3
:10011000A0E0B2E001C01D92A631B107E1F70E9454
:1001200028020C9496020C9400003B9A4398089580
:1001300081B18F6081B982B1807F82B9EAE0F1E05C
:10014000808188618083EBE0F1E080818861808339
:1001500008956C98749A08956D98759A08950E9400
:1001600098000E9495000E94A9000E94AC0008958A
:10017000F894EAE6F0E0808182608083EC9A7894DB
:100180000895F894EAE6F0E0808188608083ED9A33
:10019000789408951F920F920FB60F9211248F93A7
:1001A0009F93AF93BF938091040290910502A09119
:1001B0000602B09107020196A11DB11D80930402B1
:1001C00090930502A0930602B0930702BF91AF91EE
:1001D0009F918F910F900FBE0F901F9018951F92B7
:1001E0000F920FB60F9211248F939F93AF93BF93EB
:1001F0008091080290910902A0910A02B0910B022D
:100200000196A11DB11D8093080290930902A0934D
:100210000A02B0930B02BF91AF919F918F910F9003
:100220000FBE0F901F90189586B1886088B9089509
:1002300086B1877F88B90895E1ECF0E010821092D2
:10024000C00086E08093C2008FE58093C4001092C6
:10025000C50088E980830895EAE7F0E010821092F3
:100260007B0080E280937C0080E880BF86E880830A
:100270000895883018F098E090937B008770806232
:1002800080937C00EAE7F0E0808180648083808155
:1002900084FFFDCF80917900EAE7F0E090819061E2
:1002A000908310927B000895E1E2F1E010828FEFDD
:1002B0008093250191E0909324011092290180936D
:1002C000280110922B0180932A0110922D01809316
:1002D0002C0189EA809320018BE08083089580932C
:1002E000280160932A0108951F920F920FB60F9272
:1002F0000BB60F9211242F933F934F935F936F93FD
:100300007F938F939F93AF93BF93EF93FF938091CE
:10031000C6008093150290911302933719F48093CD
:10032000140213C0943789F4609114020E946F0183
:100330000E9414018FEF9FE7A4E081509040A040FD
:10034000E1F700C000000E9418018091150280931F
:100350001302FF91EF91BF91AF919F918F917F9188
:100360006F915F914F913F912F910F900BBE0F9026
:100370000FBE0F901F901895E0ECF0E0908195FF74
:10038000FDCF8093C6000895F8940E94AF000E94AC
:100390001C010E94B8000E94C1000E942C010E9412
:1003A000540178940895EF92FF920F931F93CF9387
:1003B000DF930F92CDB7DEB718161906A4F40F2EEF
:1003C000FAE0EF2EFF24F02DB7010E946F02162FE6
:1003D000072F805D898389810E94BC01812F902F26
:1003E000181619068CF38CE20E94BC010F90DF9165
:1003F000CF911F910F91FF90EF90089592B1907F50
:100400008F70982B92B9089586E00E94FE0108959E
:1004100089E00E94FE01089585E00E94FE01089592
:100420008AE00E94FE01089584E00E94FE01089582
:1004300082E00E94FE01089581E00E94FE0108957D
:1004400088E00E94FE01089580E00E94FE01089568
:100450000E94C4010E9414018FEF9FEFACE2815013
:100460009040A040E1F700C000000E9418010E94E7
:10047000040280E060E00E946F0183E00E94390185
:100480000E94BC0182E00E9439010E94BC0181E00F
:100490000E9439010E94BC018BE00E9439010E9438
:1004A000BC018091040290910502A0910602B091D6
:1004B00007020E94D3018091080290910902A09145
:1004C0000A02B0910B020E94D3018FEF9FEFACE2C2
:1004D00081509040A040E1F700C00000CECF97FBD4
:1004E000092E07260AD077FD04D00CD006D00020B4
:1004F0001AF4709561957F4F0895F6F79095819560
:100500009F4F0895AA1BBB1B51E107C0AA1FBB1F29
:10051000A617B70710F0A61BB70B881F991F5A958F
:10052000A9F780959095BC01CD010895F894FFCF6F
:00000001FF
